:100000000C945E000C9486000C9486000C94860080
:100010000C9486000C9486000C9486000C94860048
:100020000C9486000C9486000C9486000C94860038
:100030000C9486000C9486000C9486000C94860028
:100040000C9423070C9486000C9491090C94C3091A
:100050000C9486000C9486000C9486000C94860008
:100060000C9486000C948600000000080002010039
:100070000003040700000000000000000102040863
:100080001020408001020408102001020408102002
:10009000040404040404040402020202020203032E
:1000A0000303030300000000250028002B000000CC
:1000B0000000240027002A001A07F30911241FBE9C
:1000C000CFEFD8E0DEBFCDBF13E0A0E0B1E0EAEAB9
:1000D000FFE102C005900D92AA34B107D9F724E0E0
:1000E000AAE4B3E001C01D92A232B207E1F710E02A
:1000F000CCEBD0E004C02297FE010E94D00BC83B9D
:10010000D107C9F70E94770A0C94D30F0C94000012
:1001100026E040E855E260E070E081E893E00E946C
:100120002F0981E090E0A0E0B0E080935803909325
:100130005903A0935A03B0935B03809354039093A5
:100140005503A0935603B093570388EE93E0A0E0C5
:10015000B0E08093500390935103A0935203B09367
:10016000530380934C0390934D03A0934E03B0939D
:100170004F0361E083E00E94DD0761E085E00E94BB
:10018000DD076091760383E00E9416086091740396
:1001900085E00C941608CF92DF92EF92FF920E94B6
:1001A0006D07C0906403D0906503E0906603F09003
:1001B0006703CD28CE28CF2841F460936403709361
:1001C00065038093660390936703C0906403D090A7
:1001D0006503E0906603F09067039B01AC012C1966
:1001E0003D094E095F0969017A012093600330934C
:1001F00061034093620350936303CA01B90120E88D
:100200003EEE46E350E00E94AC0BCA01B9010E94E9
:100210001E0B20E030E040E05FE30E94890A0E946C
:10022000ED0A6831710529F07093730360937203CE
:1002300004C01092730310927203C701B60120E844
:100240003EEE46E350E00E94AC0B20E63AEE40E082
:1002500050E00E94AC0B6B017C01CA01B9010E9405
:100260001E0B20E030E040E05FE30E94890A0E941C
:10027000ED0A7093710360937003C0925C03D09297
:100280005D03E0925E03F0925F03C701B60128EEC2
:1002900033E040E050E00E94AC0B6B017C01CA01EE
:1002A000B9010E941E0B20E030E040E05FE30E94B5
:1002B000890A0E94ED0A70936F0360936E03C70171
:1002C000B6010E941E0B20E030E040E05FE30E9498
:1002D000890A0E94ED0A70936D0360936C03FF908E
:1002E000EF90DF90CF900895CF92DF92EF92FF9240
:1002F0000E946D076B017C018091680390916903F6
:10030000A0916A03B0916B03A7019601281B390BDA
:100310004A0B5B0BDA01C901883E9340A105B10588
:1003200008F483C56FE172E080914A0390914B031A
:100330000E94FB0C0E94CB008091580390915903BE
:10034000A0915A03B0915B0383309105A105B105DB
:1003500009F412C158F481309105A105B10591F05D
:100360000297A105B10509F47FC099C284309105B7
:10037000A105B10509F48AC10597A105B10509F4E4
:100380000DC28DC220914A0330914B0380916D03C1
:100390008F9380916C038F9380916F038F938091E3
:1003A0006E038F93809171038F93809170038F936D
:1003B000809173038F93809172038F933F932F9358
:1003C00086E091E09F938F933F932F930E94020DBD
:1003D000109277031092760360E083E00E94160883
:1003E00020914A0330914B0380916D038F9380914C
:1003F0006C038F9380916F038F9380916E038F9323
:10040000809171038F93809170038F938091730318
:100410008F93809172038F933F932F938EE291E09D
:100420009F938F933F932F930E94020D82E090E061
:10043000A0E0B0E08093580390935903A0935A032F
:10044000B0935B03C0925003D0925103E0925203E9
:10045000F09253034DB75EB7445E5F4F0FB6F8940A
:100460005EBF0FBE4DBF1BC28091500390915103E0
:10047000A0915203B0915303A7019601281B390B99
:100480004A0B5B0BDA01C901883E9340A105B10517
:1004900008F405C220914A0330914B0380916D030B
:1004A0008F9380916C038F9380916F038F938091D2
:1004B0006E038F93809171038F93809170038F935C
:1004C000809173038F93809172038F933F932F9347
:1004D00085E591E09F938F933F932F930E94020DA8
:1004E000109277031092760360E083E00E94160872
:1004F00020914A0330914B0380916D038F9380913B
:100500006C038F9380916F038F9380916E038F9311
:10051000809171038F93809170038F938091730307
:100520008F93809172038F933F932F938EE291E08C
:100530009F938F933F932F930E94020D83E090E04F
:10054000A0E0B0E08093580390935903A0935A031E
:10055000B0935B03C0925003D0925103E0925203D8
:10056000F09253034DB75EB7445E5F4F0FB6F894F9
:100570005EBF0FBE4DBF93C1809150039091510358
:10058000A0915203B0915303A7019601281B390B88
:100590004A0B5B0BDA01C901803D9740A105B1050B
:1005A00008F47DC120914A0330914B0380916D0383
:1005B0008F9380916C038F9380916F038F938091C1
:1005C0006E038F93809171038F93809170038F934B
:1005D000809173038F93809172038F933F932F9336
:1005E0008DE791E09F938F933F932F930E94020D8D
:1005F00081E090E0909377038093760361E083E05D
:100600000E94160820914A0330914B0380916D039C
:100610008F9380916C038F9380916F038F93809160
:100620006E038F93809171038F93809170038F93EA
:10063000809173038F93809172038F933F932F93D5
:1006400085EA91E09F938F933F932F930E94020D31
:1006500084E090E0A0E0B0E08093580390935903C9
:10066000A0935A03B0935B03C0925003D0925103FE
:10067000E0925203F09253034DB75EB7445E5F4F72
:100680000FB6F8945EBF0FBE4DBF09C180915003F5
:1006900090915103A0915203B0915303A701960189
:1006A000281B390B4A0B5B0BDA01C901883B9B40C5
:1006B000A105B10508F4F3C020914A0330914B0322
:1006C00080916D038F9380916C038F9380916F0362
:1006D0008F9380916E038F93809171038F9380919C
:1006E00070038F93809173038F93809172038F9324
:1006F0003F932F938DEC91E09F938F933F932F9394
:100700000E94020D109277031092760360E083E05E
:100710000E94160820914A0330914B0380916D038B
:100720008F9380916C038F9380916F038F9380914F
:100730006E038F93809171038F93809170038F93D9
:10074000809173038F93809172038F933F932F93C4
:100750008EE291E09F938F933F932F930E94020D1F
:1007600085E090E0A0E0B0E08093580390935903B7
:10077000A0935A03B0935B03C0925003D0925103ED
:10078000E0925203F09253034DB75EB7445E5F4F61
:100790000FB6F8945EBF0FBE4DBF81C0809150036D
:1007A00090915103A0915203B0915303A701960178
:1007B000281B390B4A0B5B0B2A30310541055105CB
:1007C00008F46DC020914A0330914B0380916D0372
:1007D0008F9380916C038F9380916F038F9380919F
:1007E0006E038F93809171038F93809170038F9329
:1007F000809173038F93809172038F933F932F9314
:1008000088EF91E09F938F933F932F930E94020D67
:10081000109277031092760360E083E00E9416083E
:1008200020914A0330914B0380916D038F93809107
:100830006C038F9380916F038F9380916E038F93DE
:10084000809171038F93809170038F9380917303D4
:100850008F93809172038F933F932F938EE291E059
:100860009F938F933F932F930E94020D10925803F2
:100870001092590310925A0310925B03C0925003D6
:10088000D0925103E0925203F09253034DB75EB7FA
:10089000445E5F4F0FB6F8945EBF0FBE4DBF8091B0
:1008A000540390915503A0915603B09157038330A0
:1008B0009105A105B10509F411C158F481309105E4
:1008C000A105B10591F00297A105B10509F47EC01B
:1008D00098C284309105A105B10509F489C1059735
:1008E000A105B10509F40CC28CC220914A033091D4
:1008F0004B0380916D038F9380916C038F93809154
:100900006F038F9380916E038F93809171038F9308
:10091000809170038F93809173038F938091720302
:100920008F933F932F9380E292E09F938F933F9317
:100930002F930E94020D109275031092740360E0D1
:1009400085E00E94160820914A0330914B03809164
:100950006D038F9380916C038F9380916F038F93BE
:1009600080916E038F93809171038F9380917003B8
:100970008F93809173038F93809172038F933F9332
:100980002F9388E492E09F938F933F932F930E943D
:10099000020D82E090E0A0E0B0E0809354039093D9
:1009A0005503A0935603B0935703C0924C03D092C3
:1009B0004D03E0924E03F0924F038DB79EB74C96D5
:1009C0000FB6F8949EBF0FBE8DBF1BC280914C0323
:1009D00090914D03A0914E03B0914F03A701960152
:1009E000281B390B4A0B5B0BDA01C901883E934087
:1009F000A105B10508F405C220914A0330914B03CB
:100A000080916D038F9380916C038F9380916F031E
:100A10008F9380916E038F93809171038F93809158
:100A200070038F93809173038F93809172038F93E0
:100A30003F932F938FE692E09F938F933F932F9353
:100A40000E94020D109275031092740360E085E01D
:100A50000E94160820914A0330914B0380916D0348
:100A60008F9380916C038F9380916F038F9380910C
:100A70006E038F93809171038F93809170038F9396
:100A8000809173038F93809172038F933F932F9381
:100A900088E492E09F938F933F932F930E94020DDF
:100AA00083E090E0A0E0B0E080935403909355037E
:100AB000A0935603B0935703C0924C03D0924D03BA
:100AC000E0924E03F0924F034DB75EB7445E5F4F26
:100AD0000FB6F8945EBF0FBE4DBF93C180914C031B
:100AE00090914D03A0914E03B0914F03A701960141
:100AF000281B390B4A0B5B0BDA01C901803D97407B
:100B0000A105B10508F47DC120914A0330914B0342
:100B100080916D038F9380916C038F9380916F030D
:100B20008F9380916E038F93809171038F93809147
:100B300070038F93809173038F93809172038F93CF
:100B40003F932F9387E992E09F938F933F932F9347
:100B50000E94020D81E090E09093750380937403EE
:100B600061E085E00E94160820914A0330914B0312
:100B700080916D038F9380916C038F9380916F03AD
:100B80008F9380916E038F93809171038F938091E7
:100B900070038F93809173038F93809172038F936F
:100BA0003F932F938FEB92E09F938F933F932F93DD
:100BB0000E94020D84E090E0A0E0B0E08093540336
:100BC00090935503A0935603B0935703C0924C03E0
:100BD000D0924D03E0924E03F0924F034DB75EB7B3
:100BE000445E5F4F0FB6F8945EBF0FBE4DBF09C1A4
:100BF00080914C0390914D03A0914E03B0914F030F
:100C0000A7019601281B390B4A0B5B0BDA01C901BE
:100C100088389341A105B10508F4F3C020914A0337
:100C200030914B0380916D038F9380916C038F9370
:100C300080916F038F9380916E038F9380917103E6
:100C40008F93809170038F93809173038F93809122
:100C500072038F933F932F9387EE92E09F938F932E
:100C60003F932F930E94020D10927503109274030C
:100C700060E085E00E94160820914A0330914B0302
:100C800080916D038F9380916C038F9380916F039C
:100C90008F9380916E038F93809171038F938091D6
:100CA00070038F93809173038F93809172038F935E
:100CB0003F932F9388E492E09F938F933F932F93DA
:100CC0000E94020D85E090E0A0E0B0E08093540324
:100CD00090935503A0935603B0935703C0924C03CF
:100CE000D0924D03E0924E03F0924F034DB75EB7A2
:100CF000445E5F4F0FB6F8945EBF0FBE4DBF81C01C
:100D000080914C0390914D03A0914E03B0914F03FD
:100D1000A7019601281B390B4A0B5B0B2A303105C2
:100D20004105510508F46DC020914A0330914B03F1
:100D300080916D038F9380916C038F9380916F03EB
:100D40008F9380916E038F93809171038F93809125
:100D500070038F93809173038F93809172038F93AD
:100D60003F932F9382E193E09F938F933F932F9331
:100D70000E94020D109275031092740360E085E0EA
:100D80000E94160820914A0330914B0380916D0315
:100D90008F9380916C038F9380916F038F938091D9
:100DA0006E038F93809171038F93809170038F9363
:100DB000809173038F93809172038F933F932F934E
:100DC00088E492E09F938F933F932F930E94020DAC
:100DD0001092540310925503109256031092570329
:100DE000C0924C03D0924D03E0924E03F0924F0319
:100DF0004DB75EB7445E5F4F0FB6F8945EBF0FBE4F
:100E00004DBFC0926803D0926903E0926A03F092EA
:100E10006B0360914A0370914B0381E893E0FF906C
:100E2000EF90DF90CF900C94740AFF90EF90DF90DA
:100E3000CF90089580E094E00E94860A90934B033F
:100E400080934A0308951F920F920FB60F921124B8
:100E50002F933F938F939F93AF93BF938091790389
:100E600090917A03A0917B03B0917C033091780339
:100E700023E0230F2D3720F40196A11DB11D05C0DD
:100E800026E8230F0296A11DB11D209378038093BD
:100E9000790390937A03A0937B03B0937C038091B2
:100EA0007D0390917E03A0917F03B0918003019612
:100EB000A11DB11D80937D0390937E03A0937F03BA
:100EC000B0938003BF91AF919F918F913F912F91EC
:100ED0000F900FBE0F901F9018952FB7F894609148
:100EE000790370917A0380917B0390917C032FBFEB
:100EF0000895789484B5826084BD84B5816084BD92
:100F000085B5826085BD85B5816085BDEEE6F0E082
:100F1000808181608083E1E8F0E0108280818260DE
:100F20008083808181608083E0E8F0E0808181605F
:100F30008083E1EBF0E0808184608083E0EBF0E08F
:100F4000808181608083EAE7F0E080818460808333
:100F500080818260808380818160808380818068DD
:100F600080831092C1000895833081F028F481308D
:100F700099F08230A1F008958730A9F08830B9F057
:100F80008430D1F4809180008F7D03C080918000F7
:100F90008F7780938000089584B58F7702C084B5E1
:100FA0008F7D84BD08958091B0008F7703C08091BC
:100FB000B0008F7D8093B0000895CF93DF9390E0D1
:100FC000FC01E458FF4F2491FC01E057FF4F84914E
:100FD000882349F190E0880F991FFC01E255FF4FEB
:100FE000A591B4918C559F4FFC01C591D4919FB7A9
:100FF000611108C0F8948C91209582238C9388818C
:1010000082230AC0623051F4F8948C91322F3095CB
:1010100083238C938881822B888304C0F8948C91DD
:10102000822B8C939FBFDF91CF9108950F931F93D5
:10103000CF93DF931F92CDB7DEB7282F30E0F901B1
:10104000E859FF4F8491F901E458FF4F1491F901D9
:10105000E057FF4F04910023C9F0882321F06983F2
:101060000E94B4076981E02FF0E0EE0FFF1FEC55FE
:10107000FF4FA591B4919FB7F8948C91611103C073
:101080001095812301C0812B8C939FBF0F90DF911E
:10109000CF911F910F910895FC01818D228D90E0D9
:1010A000805C9F4F821B91098F7399270895FC01E3
:1010B000918D828D981731F0828DE80FF11D858D0D
:1010C00090E008958FEF9FEF0895FC01918D828D40
:1010D000981761F0828DDF01A80FB11D5D968C918C
:1010E000928D9F5F9F73928F90E008958FEF9FEF97
:1010F000089589EE99E0892B49F080E090E0892BF2
:1011000029F00E94E90981110C9400000895FC0166
:10111000848DDF01A80FB11DA35ABF4F2C91848D80
:1011200090E001968F739927848FA689B7892C93B5
:10113000A089B1898C9180648C93938D848D981350
:1011400006C00288F389E02D80818F7D8083089519
:10115000CF93DF93EC01888D8823C9F0EA89FB895E
:10116000808185FD05C0A889B9898C9186FD0FC055
:101170000FB607FCF5CF808185FFF2CFA889B9892A
:101180008C9185FFEDCFCE010E948708E7CFDF91DC
:10119000CF910895CF92DF92FF920F931F93CF9339
:1011A000DF931F92CDB7DEB76C0181E0D601589670
:1011B0008C9358975B969C915B975C968C915C970F
:1011C000981307C05096ED91FC915197808185FD51
:1011D0002EC0F601038D10E00F5F1F4F0F73112714
:1011E000F02EF601848DF81211C00FB607FCF9CF6E
:1011F000D6015096ED91FC915197808185FFF1CFFA
:10120000C60169830E9487086981EBCF838DE80F4F
:10121000F11DE35AFF4F6083D6015B960C935B97F9
:101220005296ED91FC915397808180620CC0D6015B
:101230005696ED91FC91579760835096ED91FC91F5
:10124000519780818064808381E090E00F90DF91EE
:10125000CF911F910F91FF90DF90CF900895BF9293
:10126000CF92DF92EF92FF92CF93DF93EC016A016E
:101270007B01B22EE889F98982E08083411581EEF5
:10128000580761057105A1F060E079E08DE390E019
:10129000A70196010E94AC0B215031094109510967
:1012A0005695479537952795211580E1380798F091
:1012B000E889F989108260E874E88EE190E0A7017E
:1012C00096010E94AC0B21503109410951095695F4
:1012D000479537952795EC85FD853083EE85FF850D
:1012E0002083188EEC89FD89B082EA89FB89808190
:1012F00080618083EA89FB89808188608083EA89B4
:10130000FB89808180688083EA89FB8980818F7D69
:101310008083DF91CF91FF90EF90DF90CF90BF90CF
:1013200008951F920F920FB60F9211242F938F934F
:101330009F93EF93FF93E0919103F091920380814B
:10134000E0919703F091980382FD12C09081809103
:101350009A038F5F8F7320919B03821751F0E09166
:101360009A03F0E0EF57FC4F958F80939A0301C0EA
:101370008081FF91EF919F918F912F910F900FBEE0
:101380000F901F9018951F920F920FB60F92112475
:101390002F933F934F935F936F937F938F939F937D
:1013A000AF93BF93EF93FF9381E893E00E94870888
:1013B000FF91EF91BF91AF919F918F917F916F912D
:1013C0005F914F913F912F910F900FBE0F901F9003
:1013D000189581E893E00E944C0821E0892B09F4DC
:1013E00020E0822F0895109284031092830388EEE8
:1013F00093E0A0E0B0E08093850390938603A093F0
:101400008703B09388038EE393E0909382038093E5
:10141000810385EC90E090938E0380938D0384ECA0
:1014200090E09093900380938F0380EC90E09093F2
:1014300092038093910381EC90E0909394038093C6
:10144000930382EC90E0909396038093950386EC4F
:1014500090E0909398038093970310929A031092D0
:101460009B0310929C0310929D030895CF92DF92EC
:10147000EF92FF920F931F93CF93DF937C016A014A
:10148000EB0100E010E00C151D0571F06991D7012A
:10149000ED91FC910190F081E02DC7010995892B18
:1014A00019F00F5F1F4FEFCFC801DF91CF911F9150
:1014B0000F91FF90EF90DF90CF9008956115710527
:1014C00081F0DB010D900020E9F7AD014150510999
:1014D000461B570BDC01ED91FC910280F381E02D5E
:1014E000099480E090E008950C945E0A08950E94AB
:1014F00079070E94760A0E948800C9E7D8E00E9416
:1015000074012097E1F30E947908F9CF0C94D40B71
:101510005058BB27AA270ED0E5C0D6D030F0DBD07C
:1015200020F031F49F3F11F41EF4CBC00EF4E0958F
:10153000E7FBC1C0E92FE7D080F3BA176207730752
:101540008407950718F071F49EF5FFC00EF4E0953E
:101550000B2EBA2FA02D0B01B90190010C01CA016D
:10156000A0011124FF27591B99F0593F50F4503E18
:1015700068F11A16F040A22F232F342F4427585F0A
:10158000F3CF469537952795A795F0405395C9F722
:101590007EF41F16BA0B620B730B840BBAF09150DA
:1015A000A1F0FF0FBB1F661F771F881FC2F70EC079
:1015B000BA0F621F731F841F48F48795779567954C
:1015C000B795F7959E3F08F0B3CF9395880F08F035
:1015D0009927EE0F97958795089504D06894B111D7
:1015E000B5C0089598D088F09F5790F0B92F9927EB
:1015F000B751A0F0D1F0660F771F881F991F1AF01E
:10160000BA95C9F712C0B13081F09FD0B1E008950A
:101610009CC0672F782F8827B85F39F0B93FCCF38B
:10162000869577956795B395D9F73EF49095809513
:10163000709561957F4F8F4F9F4F0895E89409C033
:1016400097FB3EF490958095709561957F4F8F4FF5
:101650009F4F9923A9F0F92F96E9BB279395F6950B
:10166000879577956795B795F111F8CFFAF4BB0F89
:1016700011F460FF1BC06F5F7F4F8F4F9F4F16C0ED
:10168000882311F096E911C0772321F09EE8872F77
:10169000762F05C0662371F096E8862F70E060E033
:1016A0002AF09A95660F771F881FDAF7880F9695AC
:1016B000879597F9089597F99F6780E870E060E053
:1016C00008959FEF80EC089500240A9416161706DB
:1016D00018060906089500240A9412161306140623
:1016E00005060895092E0394000C11F4882352F086
:1016F000BB0F40F4BF2B11F460FF04C06F5F7F4F3E
:101700008F4F9F4F089557FD9058440F551F59F024
:101710005F3F71F04795880F97FB991F61F09F3FDE
:1017200079F087950895121613061406551FF2CF07
:101730004695F1DF08C0161617061806991FF1CF57
:1017400086957105610508940895E894BB2766277E
:101750007727CB0197F90895A1E21A2EAA1BBB1B8C
:10176000FD010DC0AA1FBB1FEE1FFF1FA217B3076D
:10177000E407F50720F0A21BB30BE40BF50B661F83
:10178000771F881F991F1A9469F760957095809547
:1017900090959B01AC01BD01CF010895EE0FFF1F95
:1017A0000590F491E02D0994CF93DF938230910559
:1017B00010F482E090E0E0912004F091210420E018
:1017C00030E0A0E0B0E0309739F140815181481716
:1017D0005907B8F04817590771F48281938110971F
:1017E00029F013969C938E9312972CC0909321040A
:1017F0008093200427C02115310531F0421753078B
:1018000018F0A901DB0101C0EF019A01BD01DF0160
:101810000280F381E02DD7CF21153105F9F0281B87
:10182000390B2430310580F48A819B816115710563
:1018300021F0FB019383828304C090932104809361
:101840002004FE01329644C0FE01E20FF31F819393
:10185000919322503109398328833AC020911E0484
:1018600030911F04232B41F4209102013091030198
:1018700030931F0420931E04209100013091010138
:101880002115310541F42DB73EB740910401509127
:101890000501241B350BE0911E04F0911F04E21793
:1018A000F307A0F42E1B3F0B2817390778F0AC0183
:1018B0004E5F5F4F2417350748F04E0F5F1F509360
:1018C0001F0440931E048193919302C0E0E0F0E076
:1018D000CF01DF91CF910895CF93DF93009709F463
:1018E00087C0FC01329713821282C0912004D091EC
:1018F0002104209781F420813181280F391F8091A4
:101900001E0490911F048217930779F5F0931F042A
:10191000E0931E046DC0DE0120E030E0AE17BF078B
:1019200050F412964D915C9113979D01411551050C
:1019300009F1DA01F3CFB383A28340815181840F8F
:10194000951F8A179B0771F48D919C911197840FB5
:10195000951F02969183808312968D919C91139787
:10196000938382832115310529F4F0932104E093B8
:1019700020043EC0D9011396FC93EE9312974D912B
:101980005D91A40FB51FEA17FB0779F4808191815F
:10199000840F951F0296D90111969C938E93828194
:1019A000938113969C938E931297E0E0F0E08A81E6
:1019B0009B81009719F0FE01EC01F9CFCE01029650
:1019C00028813981820F931F20911E0430911F04BA
:1019D0002817390769F4309729F4109221041092DE
:1019E000200402C013821282D0931F04C0931E04ED
:1019F000DF91CF910895FB01DC0101900D92002051
:101A0000E1F70895AEE0B0E0E8E0FDE00C94AA0F45
:101A10000D891E8986E08C831A8309838FEF9FE7E7
:101A20009E838D83AE01475E5F4F6F89788DCE01B7
:101A300001960E94240DEF81F885E00FF11F1082BE
:101A40002E96E4E00C94C60FACE0B0E0EAE2FDE0D4
:101A50000C949C0F7C016B018A01FC011782168299
:101A6000838181FFBDC1CE0101964C01F7019381B5
:101A7000F60193FD859193FF81916F01882309F40D
:101A8000ABC1853239F493FD859193FF81916F014C
:101A9000853229F4B70190E00E940C0FE7CF512C5A
:101AA000312C20E02032A0F48B3269F030F4803207
:101AB00059F0833269F420612CC08D3239F08033C3
:101AC00039F4216026C02260246023C0286021C030
:101AD00027FD27C030ED380F3A3078F426FF06C0D6
:101AE000FAE05F9E300D1124532E13C08AE0389E19
:101AF000300D1124332E20620CC08E3221F426FDCD
:101B00006BC1206406C08C3611F4206802C0883690
:101B100041F4F60193FD859193FF81916F0181114D
:101B2000C1CF982F9F7D9554933028F40C5F1F4FA1
:101B3000FFE3F9830DC0833631F0833771F08335CD
:101B400009F05BC022C0F801808189830E5F1F4FBE
:101B500044244394512C540115C03801F2E06F0E17
:101B6000711CF801A080B18026FF03C0652D70E0D4
:101B700002C06FEF7FEFC5012C870E94010F2C017F
:101B800083012C852F77222E17C03801F2E06F0ECB
:101B9000711CF801A080B18026FF03C0652D70E0A4
:101BA00002C06FEF7FEFC5012C870E94F60E2C015B
:101BB0002C852068222E830123FC1BC0832D90E0FE
:101BC00048165906B0F4B70180E290E00E940C0F6D
:101BD0003A94F4CFF50127FC859127FE81915F01AE
:101BE000B70190E00E940C0F31103A94F1E04F1AC7
:101BF00051084114510471F7E5C0843611F089365B
:101C000039F5F80127FF07C06081718182819381D6
:101C10000C5F1F4F08C060817181882777FD809518
:101C2000982F0E5F1F4F2F76B22E97FF09C0909509
:101C30008095709561957F4F8F4F9F4F2068B22E92
:101C40002AE030E0A4010E943E0FA82EA81844C04C
:101C5000853729F42F7EB22E2AE030E025C0F22FFE
:101C6000F97FBF2E8F36C1F018F4883579F0B4C0F3
:101C7000803719F0883721F0AFC02F2F2061B22EA6
:101C8000B4FE0DC08B2D8460B82E09C024FF0AC09D
:101C90009F2F9660B92E06C028E030E005C020E1F5
:101CA00030E002C020E132E0F801B7FE07C06081F9
:101CB0007181828193810C5F1F4F06C060817181A9
:101CC00080E090E00E5F1F4FA4010E943E0FA82EFF
:101CD000A818FB2DFF77BF2EB6FE0BC02B2D2E7F35
:101CE000A51450F4B4FE0AC0B2FC08C02B2D2E7E01
:101CF00005C07A2C2B2D03C07A2C01C0752C24FF33
:101D00000DC0FE01EA0DF11D8081803311F4297EA2
:101D100009C022FF06C07394739404C0822F867892
:101D200009F0739423FD13C020FF06C05A2C7314CE
:101D300018F4530C5718732C731468F4B70180E22D
:101D400090E02C870E940C0F73942C85F5CF7314B0
:101D500010F4371801C0312C24FF12C0B70180E302
:101D600090E02C870E940C0F2C8522FF17C021FFCA
:101D700003C088E590E002C088E790E0B7010CC09E
:101D8000822F867859F021FD02C080E201C08BE2EB
:101D900027FD8DE2B70190E00E940C0FA51438F4E6
:101DA000B70180E390E00E940C0F5A94F7CFAA94F9
:101DB000F401EA0DF11D8081B70190E00E940C0F43
:101DC000A110F5CF332009F451CEB70180E290E0A5
:101DD0000E940C0F3A94F6CFF7018681978102C0DA
:101DE0008FEF9FEF2C96E2E10C94B80FFC01059069
:101DF000615070400110D8F7809590958E0F9F1F0D
:101E00000895FC016150704001900110D8F7809551
:101E100090958E0F9F1F08950F931F93CF93DF937D
:101E2000182F092FEB018B8181FD03C08FEF9FEFEE
:101E300020C082FF10C04E815F812C813D814217FE
:101E400053077CF4E881F9819F012F5F3F4F39836D
:101E50002883108306C0E885F985812F0995892B91
:101E600029F72E813F812F5F3F4F3F832E83812FA4
:101E7000902FDF91CF911F910F910895FA01AA271A
:101E8000283051F1203181F1E8946F936E7F6E5FBD
:101E90007F4F8F4F9F4FAF4FB1E03ED0B4E03CD06B
:101EA000670F781F891F9A1FA11D680F791F8A1F4E
:101EB000911DA11D6A0F711D811D911DA11D20D0B5
:101EC00009F468943F912AE0269F11243019305D6F
:101ED0003193DEF6CF010895462F4770405D419360
:101EE000B3E00FD0C9F7F6CF462F4F70405D4A33AD
:101EF00018F0495D31FD4052419302D0A9F7EACF75
:101F0000B4E0A6959795879577956795BA95C9F7A3
:101F100000976105710508959B01AC010A2E069496
:101F20005795479537952795BA95C9F7620F731F4F
:101F3000841F951FA01D08952F923F924F925F928C
:101F40006F927F928F929F92AF92BF92CF92DF92C9
:101F5000EF92FF920F931F93CF93DF93CDB7DEB72E
:101F6000CA1BDB0B0FB6F894DEBF0FBECDBF0994C2
:101F70002A88398848885F846E847D848C849B8419
:101F8000AA84B984C884DF80EE80FD800C811B8127
:101F9000AA81B981CE0FD11D0FB6F894DEBF0FBE56
:0A1FA000CDBFED010895F894FFCFC6
:101FAA0000002204800025735B25302E32643A2516
:101FBA00302E32643A25302E32642E25302E336488
:101FCA005D3A204D313A20494E49542E0A00257374
:101FDA005B25302E32643A25302E32643A25302E73
:101FEA0032642E25302E33645D3A204D31203D2057
:101FFA004C4F570A0025735B25302E32643A253040
:10200A002E32643A25302E32642E25302E33645D0A
:10201A003A204D313A20574149542E0A0025735B24
:10202A0025302E32643A25302E32643A25302E324B
:10203A00642E25302E33645D3A204D313A205055B6
:10204A0053482E0A0025735B25302E32643A253018
:10205A002E32643A25302E32642E25302E33645DBA
:10206A003A204D31203D20484947480A0025735BF4
:10207A0025302E32643A25302E32643A25302E32FB
:10208A00642E25302E33645D3A204D313A20524574
:10209A004C454153452E0A0025735B25302E326488
:1020AA003A25302E32643A25302E32642E25302ECF
:1020BA0033645D3A204D313A20444F4E452E0A0092
:1020CA0025735B25302E32643A25302E32643A2548
:1020DA00302E32642E25302E33645D3A204D323A4A
:1020EA0020494E49542E0A0025735B25302E32644E
:1020FA003A25302E32643A25302E32642E25302E7F
:10210A0033645D3A204D32203D204C4F570A00255A
:10211A00735B25302E32643A25302E32643A2530EC
:10212A002E32642E25302E33645D3A204D323A2009
:10213A00574149542E0A0025735B25302E32643AE2
:10214A0025302E32643A25302E32642E25302E3335
:10215A00645D3A204D323A20505553482E0A0025E4
:10216A00735B25302E32643A25302E32643A25309C
:10217A002E32642E25302E33645D3A204D32203DB6
:10218A0020484947480A0025735B25302E32643AB5
:10219A0025302E32643A25302E32642E25302E33E5
:1021AA00645D3A204D323A2052454C454153452E02
:1021BA000A0025735B25302E32643A25302E3264AC
:1021CA003A25302E32642E25302E33645D3A204D66
:1021DA00323A20444F4E452E0A0000000000CA0839
:0A21EA00360A4C0865085708A808DB
:00000001FF
