:100000000C945E000C9486000C9486000C94860080
:100010000C9486000C9486000C9486000C94860048
:100020000C9486000C9486000C9486000C94860038
:100030000C9486000C9486000C9486000C94860028
:100040000C946F070C9486000C94DD090C940F0A35
:100050000C9486000C9486000C9486000C94860008
:100060000C9486000C948600000000080002010039
:100070000003040700000000000000000102040863
:100080001020408001020408102001020408102002
:10009000040404040404040402020202020203032E
:1000A0000303030300000000250028002B000000CC
:1000B0000000240027002A0066073F0A11241FBE03
:1000C000CFEFD8E0DEBFCDBF13E0A0E0B1E0E2E4C7
:1000D000F0E202C005900D92A237B107D9F724E0F3
:1000E000A2E7B3E001C01D92A634B207E1F710E029
:1000F000CCEBD0E004C02297FE010E941C0CC83B50
:10010000D107C9F70E94C30A0C941F100C94000079
:10011000CF92DF92EF92FF920E94B907C0908C03BA
:10012000D0908D03E0908E03F0908F03CD28CE28E1
:10013000CF2841F460938C0370938D0380938E03DA
:1001400090938F03C0908C03D0908D03E0908E032A
:10015000F0908F039B01AC012C193D094E095F09FA
:1001600069017A01209388033093890340938A03BD
:1001700050938B03CA01B90120E83EEE46E350E0FC
:100180000E94F80BCA01B9010E946A0B20E030E01E
:1001900040E05FE30E94D50A0E94390B6831710587
:1001A00029F070939B0360939A0304C010929B0301
:1001B00010929A03C701B60120E83EEE46E350E0F4
:1001C0000E94F80B20E63AEE40E050E00E94F80B67
:1001D0006B017C01CA01B9010E946A0B20E030E08A
:1001E00040E05FE30E94D50A0E94390B70939903A7
:1001F00060939803C0928403D0928503E0928603B3
:10020000F0928703C701B60128EE33E040E050E0EA
:100210000E94F80B6B017C01CA01B9010E946A0BB4
:1002200020E030E040E05FE30E94D50A0E94390BF5
:100230007093970360939603C701B6010E946A0BFF
:1002400020E030E040E05FE30E94D50A0E94390BD5
:100250007093950360939403FF90EF90DF90CF909D
:10026000089526E040E855E260E070E085EA93E01A
:100270000E947B090E94880067E472E0809172030B
:10028000909173030E94470D209172033091730384
:10029000809195038F93809194038F93809197031E
:1002A0008F93809196038F93809199038F93809180
:1002B00098038F9380919B038F9380919A038F93E0
:1002C0003F932F938AE091E09F938F933F932F93D7
:1002D0000E944E0D609172037091730385EA93E062
:1002E0000E94C00A81E090E0A0E0B0E0809380032B
:1002F00090938103A0938203B093830380937C0344
:1003000090937D03A0937E03B0937F0388EE93E0E8
:10031000A0E0B0E08093780390937903A0937A03F0
:10032000B0937B038093740390937503A09376033B
:10033000B093770361E083E00E94290861E085E0E3
:100340000E9429086091080183E00E9462088DB72D
:100350009EB70E960FB6F8949EBF0FBE8DBF6091EC
:10036000060185E00C946208CF92DF92EF92FF9233
:100370000E94B9076B017C018091900390919103D9
:10038000A0919203B0919303A7019601281B390B0A
:100390004A0B5B0BDA01C901883E9340A105B10508
:1003A00008F48FC567E472E0809172039091730343
:1003B0000E94470D0E9488008091800390918103E4
:1003C000A0918203B091830383309105A105B1050B
:1003D00009F416C158F481309105A105B10591F0D9
:1003E0000297A105B10509F481C09FC2843091052F
:1003F000A105B10509F48CC10597A105B10509F462
:1004000011C293C2209172033091730380919503BE
:100410008F93809194038F93809197038F93809112
:1004200096038F93809199038F93809198038F9374
:1004300080919B038F9380919A038F933F932F9387
:100440008EE291E09F938F933F932F930E944E0DE6
:1004500081E090E0909309018093080161E083E0DE
:100460000E9462082091720330917303809195037A
:100470008F93809194038F93809197038F938091B2
:1004800096038F93809199038F93809198038F9314
:1004900080919B038F9380919A038F933F932F9327
:1004A00086E591E09F938F933F932F930E944E0D8B
:1004B00082E090E0A0E0B0E080938003909381031D
:1004C000A0938203B0938303C0927803D092790300
:1004D000E0927A03F0927B034DB75EB7445E5F4FC4
:1004E0000FB6F8945EBF0FBE4DBF1FC28091780358
:1004F00090917903A0917A03B0917B03A7019601B3
:10050000281B390B4A0B5B0BDA01C901883E93406B
:10051000A105B10508F409C220917203309173035B
:10052000809195038F93809194038F93809197038B
:100530008F93809196038F93809199038F938091ED
:1005400098038F9380919B038F9380919A038F934D
:100550003F932F938EE791E09F938F933F932F9339
:100560000E944E0D81E090E0909309018093080174
:1005700061E083E00E94620820917203309173036E
:10058000809195038F93809194038F93809197032B
:100590008F93809196038F93809199038F9380918D
:1005A00098038F9380919B038F9380919A038F93ED
:1005B0003F932F9386E591E09F938F933F932F93E3
:1005C0000E944E0D83E090E0A0E0B0E080938003B5
:1005D00090938103A0938203B0938303C092780326
:1005E000D0927903E0927A03F0927B034DB75EB725
:1005F000445E5F4F0FB6F8945EBF0FBE4DBF95C10E
:100600008091780390917903A0917A03B0917B0354
:10061000A7019601281B390B4A0B5B0BDA01C901B4
:10062000803D9740A105B10508F47FC12091720378
:1006300030917303809195038F93809194038F93EE
:10064000809197038F93809196038F938091990364
:100650008F93809198038F9380919B038F938091C8
:100660009A038F933F932F9386EA91E09F938F9302
:100670003F932F930E944E0D109209011092080192
:1006800060E083E00E94620820917203309173035E
:10069000809195038F93809194038F93809197031A
:1006A0008F93809196038F93809199038F9380917C
:1006B00098038F9380919B038F9380919A038F93DC
:1006C0003F932F938EEC91E09F938F933F932F93C3
:1006D0000E944E0D84E090E0A0E0B0E080938003A3
:1006E00090938103A0938203B0938303C092780315
:1006F000D0927903E0927A03F0927B034DB75EB714
:10070000445E5F4F0FB6F8945EBF0FBE4DBF0DC184
:100710008091780390917903A0917A03B0917B0343
:10072000A7019601281B390B4A0B5B0BDA01C901A3
:10073000883B9B40A105B10508F4F7C020917203E6
:1007400030917303809195038F93809194038F93DD
:10075000809197038F93809196038F938091990353
:100760008F93809198038F9380919B038F938091B7
:100770009A038F933F932F9385EF91E09F938F93ED
:100780003F932F930E944E0D81E090E090930901DA
:100790008093080161E083E00E9462082091720367
:1007A00030917303809195038F93809194038F937D
:1007B000809197038F93809196038F9380919903F3
:1007C0008F93809198038F9380919B038F93809157
:1007D0009A038F933F932F9386E591E09F938F9396
:1007E0003F932F930E944E0D85E090E0A0E0B0E093
:1007F0008093800390938103A0938203B09383033B
:10080000C0927803D0927903E0927A03F0927B034E
:100810004DB75EB7445E5F4F0FB6F8945EBF0FBE34
:100820004DBF83C08091780390917903A0917A03A2
:10083000B0917B03A7019601281B390B4A0B5B0B78
:100840002A3031054105510508F46FC0209172032B
:1008500030917303809195038F93809194038F93CC
:10086000809197038F93809196038F938091990342
:100870008F93809198038F9380919B038F938091A6
:100880009A038F933F932F9380E292E09F938F93ED
:100890003F932F930E944E0D81E090E090930901C9
:1008A0008093080161E083E00E9462082091720356
:1008B00030917303809195038F93809194038F936C
:1008C000809197038F93809196038F9380919903E2
:1008D0008F93809198038F9380919B038F93809146
:1008E0009A038F933F932F9386E591E09F938F9385
:1008F0003F932F930E944E0D10928003109281031C
:100900001092820310928303C0927803D0927903ED
:10091000E0927A03F0927B034DB75EB7445E5F4F7F
:100920000FB6F8945EBF0FBE4DBF80917C039091CF
:100930007D03A0917E03B0917F0383309105A105D3
:10094000B10509F415C158F481309105A105B1052F
:1009500091F00297A105B10509F480C09EC28430D0
:100960009105A105B10509F48BC10597A105B10554
:1009700009F410C292C220917203309173038091E6
:1009800095038F93809194038F93809197038F9316
:10099000809196038F93809199038F938091980310
:1009A0008F9380919B038F9380919A038F933F93B2
:1009B0002F9388E492E09F938F933F932F930E940D
:1009C0004E0D81E090E0909307018093060161E075
:1009D00085E00E9462082091720330917303809138
:1009E00095038F93809194038F93809197038F93B6
:1009F000809196038F93809199038F9380919803B0
:100A00008F9380919B038F9380919A038F933F9351
:100A10002F9380E792E09F938F933F932F930E94B1
:100A20004E0D82E090E0A0E0B0E080937C039093D4
:100A30007D03A0937E03B0937F03C0927403D09292
:100A40007503E0927603F09277038DB79EB74C96CC
:100A50000FB6F8949EBF0FBE8DBF1FC28091740366
:100A600090917503A0917603B0917703A701960149
:100A7000281B390B4A0B5B0BDA01C901883E9340F6
:100A8000A105B10508F409C22091720330917303E6
:100A9000809195038F93809194038F938091970316
:100AA0008F93809196038F93809199038F93809178
:100AB00098038F9380919B038F9380919A038F93D8
:100AC0003F932F9388E992E09F938F933F932F93C7
:100AD0000E944E0D81E090E0909307018093060103
:100AE00061E085E00E9462082091720330917303F7
:100AF000809195038F93809194038F9380919703B6
:100B00008F93809196038F93809199038F93809117
:100B100098038F9380919B038F9380919A038F9377
:100B20003F932F9380E792E09F938F933F932F9370
:100B30000E944E0D83E090E0A0E0B0E080937C0343
:100B400090937D03A0937E03B0937F03C0927403C0
:100B5000D0927503E0927603F09277034DB75EB7BB
:100B6000445E5F4F0FB6F8945EBF0FBE4DBF95C198
:100B70008091740390917503A0917603B0917703EF
:100B8000A7019601281B390B4A0B5B0BDA01C9013F
:100B9000803D9740A105B10508F47FC12091720303
:100BA00030917303809195038F93809194038F9379
:100BB000809197038F93809196038F9380919903EF
:100BC0008F93809198038F9380919B038F93809153
:100BD0009A038F933F932F9380EC92E09F938F9390
:100BE0003F932F930E944E0D109207011092060121
:100BF00060E085E00E9462082091720330917303E7
:100C0000809195038F93809194038F9380919703A4
:100C10008F93809196038F93809199038F93809106
:100C200098038F9380919B038F9380919A038F9366
:100C30003F932F9388EE92E09F938F933F932F9350
:100C40000E944E0D84E090E0A0E0B0E080937C0331
:100C500090937D03A0937E03B0937F03C0927403AF
:100C6000D0927503E0927603F09277034DB75EB7AA
:100C7000445E5F4F0FB6F8945EBF0FBE4DBF0DC10F
:100C80008091740390917503A0917603B0917703DE
:100C9000A7019601281B390B4A0B5B0BDA01C9012E
:100CA00088389341A105B10508F4F7C0209172037B
:100CB00030917303809195038F93809194038F9368
:100CC000809197038F93809196038F9380919903DE
:100CD0008F93809198038F9380919B038F93809142
:100CE0009A038F933F932F938FE093E09F938F937B
:100CF0003F932F930E944E0D81E090E09093070167
:100D00008093060161E085E00E94620820917203F1
:100D100030917303809195038F93809194038F9307
:100D2000809197038F93809196038F93809199037D
:100D30008F93809198038F9380919B038F938091E1
:100D40009A038F933F932F9380E792E09F938F9323
:100D50003F932F930E944E0D85E090E0A0E0B0E01D
:100D600080937C0390937D03A0937E03B0937F03D5
:100D7000C0927403D0927503E0927603F0927703E9
:100D80004DB75EB7445E5F4F0FB6F8945EBF0FBEBF
:100D90004DBF83C08091740390917503A091760339
:100DA000B0917703A7019601281B390B4A0B5B0B07
:100DB0002A3031054105510508F46FC020917203B6
:100DC00030917303809195038F93809194038F9357
:100DD000809197038F93809196038F9380919903CD
:100DE0008F93809198038F9380919B038F93809131
:100DF0009A038F933F932F938AE393E09F938F936C
:100E00003F932F930E944E0D81E090E09093070155
:100E10008093060161E085E00E94620820917203E0
:100E200030917303809195038F93809194038F93F6
:100E3000809197038F93809196038F93809199036C
:100E40008F93809198038F9380919B038F938091D0
:100E50009A038F933F932F9380E792E09F938F9312
:100E60003F932F930E944E0D10927C0310927D03AE
:100E700010927E0310927F03C0927403D092750388
:100E8000E0927603F09277034DB75EB7445E5F4F12
:100E90000FB6F8945EBF0FBE4DBFC0929003D092C4
:100EA0009103E0929203F092930360917203709128
:100EB000730385EA93E0FF90EF90DF90CF900C945E
:100EC000C00AFF90EF90DF90CF90089580E094E00B
:100ED0000E94D20A909373038093720308951F9225
:100EE0000F920FB60F9211242F933F938F939F93DE
:100EF000AF93BF9380919D0390919E03A0919F0318
:100F0000B091A00330919C0323E0230F2D3720F4F0
:100F10000196A11DB11D05C026E8230F0296A11D53
:100F2000B11D20939C0380939D0390939E03A093F7
:100F30009F03B093A0038091A1039091A203A0917D
:100F4000A303B091A4030196A11DB11D8093A10339
:100F50009093A203A093A303B093A403BF91AF9176
:100F60009F918F913F912F910F900FBE0F901F90E7
:100F700018952FB7F89460919D0370919E0380910E
:100F80009F039091A0032FBF0895789484B5826049
:100F900084BD84B5816084BD85B5826085BD85B51D
:100FA000816085BDEEE6F0E0808181608083E1E8CC
:100FB000F0E0108280818260808380818160808304
:100FC000E0E8F0E0808181608083E1EBF0E0808107
:100FD00084608083E0EBF0E0808181608083EAE7D9
:100FE000F0E0808184608083808182608083808162
:100FF000816080838081806880831092C100089521
:10100000833081F028F4813099F08230A1F0089586
:101010008730A9F08830B9F08430D1F48091800015
:101020008F7D03C0809180008F778093800008952A
:1010300084B58F7702C084B58F7D84BD089580917B
:10104000B0008F7703C08091B0008F7D8093B00097
:101050000895CF93DF9390E0FC01E458FF4F249173
:10106000FC01E057FF4F8491882349F190E0880FFD
:10107000991FFC01E255FF4FA591B4918C559F4FEC
:10108000FC01C591D4919FB7611108C0F8948C916F
:10109000209582238C93888182230AC0623051F488
:1010A000F8948C91322F309583238C938881822BF6
:1010B000888304C0F8948C91822B8C939FBFDF911E
:1010C000CF9108950F931F93CF93DF931F92CDB7C6
:1010D000DEB7282F30E0F901E859FF4F8491F9017C
:1010E000E458FF4F1491F901E057FF4F049100239A
:1010F000C9F0882321F069830E9400086981E02FEC
:10110000F0E0EE0FFF1FEC55FF4FA591B4919FB794
:10111000F8948C91611103C01095812301C0812B3B
:101120008C939FBF0F90DF91CF911F910F910895E6
:10113000FC01818D228D90E0805C9F4F821B910984
:101140008F7399270895FC01918D828D981731F046
:10115000828DE80FF11D858D90E008958FEF9FEF50
:101160000895FC01918D828D981761F0828DDF01C9
:10117000A80FB11D5D968C91928D9F5F9F73928F8A
:1011800090E008958FEF9FEF089585E39AE0892B13
:1011900049F080E090E0892B29F00E94350A811106
:1011A0000C9400000895FC01848DDF01A80FB11D8F
:1011B000A35ABF4F2C91848D90E001968F7399278D
:1011C000848FA689B7892C93A089B1898C9180647A
:1011D0008C93938D848D981306C00288F389E02D3B
:1011E00080818F7D80830895CF93DF93EC01888D7C
:1011F0008823C9F0EA89FB89808185FD05C0A8891B
:10120000B9898C9186FD0FC00FB607FCF5CF8081A0
:1012100085FFF2CFA889B9898C9185FFEDCFCE01EA
:101220000E94D308E7CFDF91CF910895CF92DF924C
:10123000FF920F931F93CF93DF931F92CDB7DEB72B
:101240006C0181E0D60158968C9358975B969C91DF
:101250005B975C968C915C97981307C05096ED91C4
:10126000FC915197808185FD2EC0F601038D10E021
:101270000F5F1F4F0F731127F02EF601848DF812A8
:1012800011C00FB607FCF9CFD6015096ED91FC9135
:101290005197808185FFF1CFC60169830E94D308F1
:1012A0006981EBCF838DE80FF11DE35AFF4F608317
:1012B000D6015B960C935B975296ED91FC915397F8
:1012C000808180620CC0D6015696ED91FC915797B3
:1012D00060835096ED91FC9151978081806480836A
:1012E00081E090E00F90DF91CF911F910F91FF90DF
:1012F000DF90CF900895BF92CF92DF92EF92FF924E
:10130000CF93DF93EC016A017B01B22EE889F98962
:1013100082E08083411581EE580761057105A1F0D7
:1013200060E079E08DE390E0A70196010E94F80B60
:10133000215031094109510956954795379527950F
:10134000211580E1380798F0E889F989108260E872
:1013500074E88EE190E0A70196010E94F80B2150FD
:101360003109410951095695479537952795EC85DF
:10137000FD853083EE85FF852083188EEC89FD89FD
:10138000B082EA89FB89808180618083EA89FB8958
:10139000808188608083EA89FB898081806880837E
:1013A000EA89FB8980818F7D8083DF91CF91FF90D7
:1013B000EF90DF90CF90BF9008951F920F920FB6DD
:1013C0000F9211242F938F939F93EF93FF93E091AC
:1013D000B503F091B6038081E091BB03F091BC03AB
:1013E00082FD12C090818091BE038F5F8F73209128
:1013F000BF03821751F0E091BE03F0E0EB55FC4FC4
:10140000958F8093BE0301C08081FF91EF919F91E2
:101410008F912F910F900FBE0F901F9018951F92D4
:101420000F920FB60F9211242F933F934F935F9318
:101430006F937F938F939F93AF93BF93EF93FF939C
:1014400085EA93E00E94D308FF91EF91BF91AF919D
:101450009F918F917F916F915F914F913F912F91CC
:101460000F900FBE0F901F90189585EA93E00E9491
:10147000980821E0892B09F420E0822F089510922A
:10148000A8031092A70388EE93E0A0E0B0E0809359
:10149000A9039093AA03A093AB03B093AC0386E691
:1014A00093E09093A6038093A50385EC90E090933E
:1014B000B2038093B10384EC90E09093B4038093E3
:1014C000B30380EC90E09093B6038093B50381EC76
:1014D00090E09093B8038093B70382EC90E09093F0
:1014E000BA038093B90386EC90E09093BC03809399
:1014F000BB031092BE031092BF031092C003109260
:10150000C1030895CF92DF92EF92FF920F931F9342
:10151000CF93DF937C016A01EB0100E010E00C1532
:101520001D0571F06991D701ED91FC910190F08159
:10153000E02DC7010995892B19F00F5F1F4FEFCFE1
:10154000C801DF91CF911F910F91FF90EF90DF9035
:10155000CF9008956115710581F0DB010D90002099
:10156000E9F7AD0141505109461B570BDC01ED91E4
:10157000FC910280F381E02D099480E090E00895D1
:101580000C94AA0A08950E94C5070E94C20A0E94EC
:101590003101C5ECD8E00E94B4012097E1F30E942C
:1015A000C508F9CF0C94200C5058BB27AA270ED0A1
:1015B000E5C0D6D030F0DBD020F031F49F3F11F4FD
:1015C0001EF4CBC00EF4E095E7FBC1C0E92FE7D0D5
:1015D00080F3BA17620773078407950718F071F450
:1015E0009EF5FFC00EF4E0950B2EBA2FA02D0B0137
:1015F000B90190010C01CA01A0011124FF27591B58
:1016000099F0593F50F4503E68F11A16F040A22F5D
:10161000232F342F4427585FF3CF469537952795CE
:10162000A795F0405395C9F77EF41F16BA0B620BCD
:10163000730B840BBAF09150A1F0FF0FBB1F661F14
:10164000771F881FC2F70EC0BA0F621F731F841F57
:1016500048F4879577956795B795F7959E3F08F07D
:10166000B3CF9395880F08F09927EE0F979587953C
:10167000089504D06894B111B5C0089598D088F049
:101680009F5790F0B92F9927B751A0F0D1F0660F6E
:10169000771F881F991F1AF0BA95C9F712C0B13089
:1016A00081F09FD0B1E008959CC0672F782F8827E4
:1016B000B85F39F0B93FCCF3869577956795B395C8
:1016C000D9F73EF490958095709561957F4F8F4F37
:1016D0009F4F0895E89409C097FB3EF4909580953C
:1016E000709561957F4F8F4F9F4F9923A9F0F92FE8
:1016F00096E9BB279395F695879577956795B79566
:10170000F111F8CFFAF4BB0F11F460FF1BC06F5F4B
:101710007F4F8F4F9F4F16C0882311F096E911C05D
:10172000772321F09EE8872F762F05C0662371F07E
:1017300096E8862F70E060E02AF09A95660F771F92
:10174000881FDAF7880F9695879597F9089597F986
:101750009F6780E870E060E008959FEF80EC089557
:1017600000240A9416161706180609060895002480
:101770000A9412161306140605060895092E0394FA
:10178000000C11F4882352F0BB0F40F4BF2B11F46E
:1017900060FF04C06F5F7F4F8F4F9F4F089557FDCD
:1017A0009058440F551F59F05F3F71F04795880FCF
:1017B00097FB991F61F09F3F79F087950895121666
:1017C00013061406551FF2CF4695F1DF08C0161612
:1017D00017061806991FF1CF8695710561050894C3
:1017E0000895E894BB2766277727CB0197F90895DA
:1017F000A1E21A2EAA1BBB1BFD010DC0AA1FBB1F15
:10180000EE1FFF1FA217B307E407F50720F0A21B86
:10181000B30BE40BF50B661F771F881F991F1A94F3
:1018200069F760957095809590959B01AC01BD011D
:10183000CF010895EE0FFF1F0590F491E02D09945C
:10184000CF93DF938230910510F482E090E0E09135
:101850004404F091450420E030E0A0E0B0E030978F
:1018600039F14081518148175907B8F04817590795
:1018700071F482819381109729F013969C938E9333
:1018800012972CC0909345048093440427C02115DF
:10189000310531F04217530718F0A901DB0101C0EF
:1018A000EF019A01BD01DF010280F381E02DD7CF66
:1018B00021153105F9F0281B390B2430310580F44E
:1018C0008A819B816115710521F0FB0193838283DD
:1018D00004C09093450480934404FE01329644C0B2
:1018E000FE01E20FF31F8193919322503109398356
:1018F00028833AC02091420430914304232B41F4C1
:10190000209102013091030130934304209342045B
:1019100020910001309101012115310541F42DB7CD
:101920003EB74091040150910501241B350BE09115
:101930004204F0914304E217F307A0F42E1B3F0B7F
:101940002817390778F0AC014E5F5F4F2417350731
:1019500048F04E0F5F1F509343044093420481931D
:10196000919302C0E0E0F0E0CF01DF91CF910895C4
:10197000CF93DF93009709F487C0FC01329713825D
:101980001282C0914404D0914504209781F42081B3
:101990003181280F391F80914204909143048217AE
:1019A000930779F5F0934304E09342046DC0DE01A0
:1019B00020E030E0AE17BF0750F412964D915C91D5
:1019C00013979D014115510509F1DA01F3CFB38356
:1019D000A28340815181840F951F8A179B0771F460
:1019E0008D919C911197840F951F0296918380830E
:1019F00012968D919C9113979383828321153105C3
:101A000029F4F0934504E09344043EC0D9011396B1
:101A1000FC93EE9312974D915D91A40FB51FEA17B9
:101A2000FB0779F480819181840F951F0296D9017B
:101A300011969C938E938281938113969C938E939F
:101A40001297E0E0F0E08A819B81009719F0FE0197
:101A5000EC01F9CFCE01029628813981820F931FC4
:101A600020914204309143042817390769F43097D4
:101A700029F4109245041092440402C01382128289
:101A8000D0934304C0934204DF91CF910895FB01AA
:101A9000DC0101900D920020E1F70895AEE0B0E086
:101AA000E4E5FDE00C94F60F0D891E8986E08C8339
:101AB0001A8309838FEF9FE79E838D83AE01475E74
:101AC0005F4F6F89788DCE0101960E94700DEF8176
:101AD000F885E00FF11F10822E96E4E00C941210AE
:101AE000ACE0B0E0E6E7FDE00C94E80F7C016B01B0
:101AF0008A01FC0117821682838181FFBDC1CE015C
:101B000001964C01F7019381F60193FD859193FFB6
:101B100081916F01882309F4ABC1853239F493FDBB
:101B2000859193FF81916F01853229F4B70190E08F
:101B30000E94580FE7CF512C312C20E02032A0F426
:101B40008B3269F030F4803259F0833269F42061CD
:101B50002CC08D3239F0803339F4216026C02260E8
:101B6000246023C0286021C027FD27C030ED380F36
:101B70003A3078F426FF06C0FAE05F9E300D11245B
:101B8000532E13C08AE0389E300D1124332E20626C
:101B90000CC08E3221F426FD6BC1206406C08C3649
:101BA00011F4206802C0883641F4F60193FD859156
:101BB00093FF81916F018111C1CF982F9F7D955423
:101BC000933028F40C5F1F4FFFE3F9830DC0833679
:101BD00031F0833771F0833509F05BC022C0F80122
:101BE000808189830E5F1F4F44244394512C5401FC
:101BF00015C03801F2E06F0E711CF801A080B180B1
:101C000026FF03C0652D70E002C06FEF7FEFC501B6
:101C10002C870E944D0F2C0183012C852F77222EBB
:101C200017C03801F2E06F0E711CF801A080B1807E
:101C300026FF03C0652D70E002C06FEF7FEFC50186
:101C40002C870E94420F2C012C852068222E8301B4
:101C500023FC1BC0832D90E048165906B0F4B70151
:101C600080E290E00E94580F3A94F4CFF50127FCEF
:101C7000859127FE81915F01B70190E00E94580F86
:101C800031103A94F1E04F1A51084114510471F7A0
:101C9000E5C0843611F0893639F5F80127FF07C011
:101CA00060817181828193810C5F1F4F08C06081C8
:101CB0007181882777FD8095982F0E5F1F4F2F76B3
:101CC000B22E97FF09C090958095709561957F4FD2
:101CD0008F4F9F4F2068B22E2AE030E0A4010E946F
:101CE0008A0FA82EA81844C0853729F42F7EB22E5B
:101CF0002AE030E025C0F22FF97FBF2E8F36C1F0E9
:101D000018F4883579F0B4C0803719F0883721F09D
:101D1000AFC02F2F2061B22EB4FE0DC08B2D84607A
:101D2000B82E09C024FF0AC09F2F9660B92E06C0A6
:101D300028E030E005C020E130E002C020E132E0E0
:101D4000F801B7FE07C060817181828193810C5FC9
:101D50001F4F06C06081718180E090E00E5F1F4FD1
:101D6000A4010E948A0FA82EA818FB2DFF77BF2E72
:101D7000B6FE0BC02B2D2E7FA51450F4B4FE0AC066
:101D8000B2FC08C02B2D2E7E05C07A2C2B2D03C053
:101D90007A2C01C0752C24FF0DC0FE01EA0DF11D47
:101DA0008081803311F4297E09C022FF06C073941C
:101DB000739404C0822F867809F0739423FD13C0B6
:101DC00020FF06C05A2C731418F4530C5718732CA8
:101DD000731468F4B70180E290E02C870E94580FDA
:101DE00073942C85F5CF731410F4371801C0312C7F
:101DF00024FF12C0B70180E390E02C870E94580FA7
:101E00002C8522FF17C021FF03C088E590E002C0A7
:101E100088E790E0B7010CC0822F867859F021FD49
:101E200002C080E201C08BE227FD8DE2B70190E0A5
:101E30000E94580FA51438F4B70180E390E00E9487
:101E4000580F5A94F7CFAA94F401EA0DF11D80813E
:101E5000B70190E00E94580FA110F5CF332009F48C
:101E600051CEB70180E290E00E94580F3A94F6CF2D
:101E7000F7018681978102C08FEF9FEF2C96E2E1F8
:101E80000C940410FC010590615070400110D8F7CB
:101E9000809590958E0F9F1F0895FC0161507040B2
:101EA00001900110D8F7809590958E0F9F1F08958F
:101EB0000F931F93CF93DF93182F092FEB018B8183
:101EC00081FD03C08FEF9FEF20C082FF10C04E81C5
:101ED0005F812C813D81421753077CF4E881F981B1
:101EE0009F012F5F3F4F39832883108306C0E88509
:101EF000F985812F0995892B29F72E813F812F5F45
:101F00003F4F3F832E83812F902FDF91CF911F91E1
:101F10000F910895FA01AA27283051F1203181F15B
:101F2000E8946F936E7F6E5F7F4F8F4F9F4FAF4FE1
:101F3000B1E03ED0B4E03CD0670F781F891F9A1FF4
:101F4000A11D680F791F8A1F911DA11D6A0F711DA8
:101F5000811D911DA11D20D009F468943F912AE0B4
:101F6000269F11243019305D3193DEF6CF0108959C
:101F7000462F4770405D4193B3E00FD0C9F7F6CFCD
:101F8000462F4F70405D4A3318F0495D31FD405295
:101F9000419302D0A9F7EACFB4E0A695979587952B
:101FA00077956795BA95C9F700976105710508950A
:101FB0009B01AC010A2E06945795479537952795B6
:101FC000BA95C9F7620F731F841F951FA01D08954E
:101FD0002F923F924F925F926F927F928F929F9239
:101FE000AF92BF92CF92DF92EF92FF920F931F9327
:101FF000CF93DF93CDB7DEB7CA1BDB0B0FB6F894D8
:10200000DEBF0FBECDBF09942A88398848885F8417
:102010006E847D848C849B84AA84B984C884DF8088
:10202000EE80FD800C811B81AA81B981CE0FD11D6C
:102030000FB6F894DEBF0FBECDBFED010895F89442
:02204000FFCFD0
:102042000000460480000100010025735B25302E4C
:1020520032643A25302E32643A25302E32642E25EF
:10206200302E33645D3A20494E49542E0A002573BE
:102072005B25302E32643A25302E32643A25302EDA
:1020820032642E25302E33645D3A204D313A204998
:102092004E49542E0A0025735B25302E32643A25B0
:1020A200302E32643A25302E32642E25302E33649F
:1020B2005D3A204D31203D20484947480A002573AA
:1020C2005B25302E32643A25302E32643A25302E8A
:1020D20032642E25302E33645D3A204D313A20573A
:1020E2004149542E0A0025735B25302E32643A256D
:1020F200302E32643A25302E32642E25302E33644F
:102102005D3A204D313A20505553482E0A0025732E
:102112005B25302E32643A25302E32643A25302E39
:1021220032642E25302E33645D3A204D31203D201D
:102132004C4F570A0025735B25302E32643A253006
:102142002E32643A25302E32642E25302E33645DD1
:102152003A204D313A2052454C454153452E0A0012
:1021620025735B25302E32643A25302E32643A25AF
:10217200302E32642E25302E33645D3A204D313AB2
:1021820020444F4E452E0A0025735B25302E3264C3
:102192003A25302E32643A25302E32642E25302EE6
:1021A20033645D3A204D323A20494E49542E0A009A
:1021B20025735B25302E32643A25302E32643A255F
:1021C200302E32642E25302E33645D3A204D32207B
:1021D2003D20484947480A0025735B25302E32646A
:1021E2003A25302E32643A25302E32642E25302E96
:1021F20033645D3A204D323A20574149542E0A0049
:1022020025735B25302E32643A25302E32643A250E
:10221200302E32642E25302E33645D3A204D323A10
:1022220020505553482E0A0025735B25302E326408
:102232003A25302E32643A25302E32642E25302E45
:1022420033645D3A204D32203D204C4F570A002521
:10225200735B25302E32643A25302E32643A2530B3
:102262002E32642E25302E33645D3A204D323A20D0
:1022720052454C454153452E0A0025735B25302EAD
:1022820032643A25302E32643A25302E32642E25BD
:10229200302E33645D3A204D323A20444F4E452E63
:1022A2000A00000000001609820A9808B108A30873
:0222B200F4082E
:00000001FF
